{
  "contractName": "Wallet",
  "abi": [
    {
      "inputs": [
        {
          "internalType": "address[]",
          "name": "_approvers",
          "type": "address[]"
        },
        {
          "internalType": "uint256",
          "name": "_quorum",
          "type": "uint256"
        }
      ],
      "stateMutability": "nonpayable",
      "type": "constructor"
    },
    {
      "inputs": [
        {
          "internalType": "address",
          "name": "",
          "type": "address"
        },
        {
          "internalType": "uint256",
          "name": "",
          "type": "uint256"
        }
      ],
      "name": "approvals",
      "outputs": [
        {
          "internalType": "bool",
          "name": "",
          "type": "bool"
        }
      ],
      "stateMutability": "view",
      "type": "function",
      "constant": true
    },
    {
      "inputs": [
        {
          "internalType": "uint256",
          "name": "",
          "type": "uint256"
        }
      ],
      "name": "approvers",
      "outputs": [
        {
          "internalType": "address",
          "name": "",
          "type": "address"
        }
      ],
      "stateMutability": "view",
      "type": "function",
      "constant": true
    },
    {
      "inputs": [],
      "name": "quorum",
      "outputs": [
        {
          "internalType": "uint256",
          "name": "",
          "type": "uint256"
        }
      ],
      "stateMutability": "view",
      "type": "function",
      "constant": true
    },
    {
      "stateMutability": "payable",
      "type": "receive",
      "payable": true
    },
    {
      "inputs": [],
      "name": "getApprovers",
      "outputs": [
        {
          "internalType": "address[]",
          "name": "",
          "type": "address[]"
        }
      ],
      "stateMutability": "view",
      "type": "function",
      "constant": true
    },
    {
      "inputs": [],
      "name": "getTransfers",
      "outputs": [
        {
          "components": [
            {
              "internalType": "uint256",
              "name": "id",
              "type": "uint256"
            },
            {
              "internalType": "uint256",
              "name": "amount",
              "type": "uint256"
            },
            {
              "internalType": "address payable",
              "name": "to",
              "type": "address"
            },
            {
              "internalType": "uint256",
              "name": "approvals",
              "type": "uint256"
            },
            {
              "internalType": "bool",
              "name": "sent",
              "type": "bool"
            }
          ],
          "internalType": "struct Wallet.Transfer[]",
          "name": "",
          "type": "tuple[]"
        }
      ],
      "stateMutability": "view",
      "type": "function",
      "constant": true
    },
    {
      "inputs": [
        {
          "internalType": "uint256",
          "name": "_amount",
          "type": "uint256"
        },
        {
          "internalType": "address payable",
          "name": "_to",
          "type": "address"
        }
      ],
      "name": "createTransfer",
      "outputs": [],
      "stateMutability": "nonpayable",
      "type": "function"
    },
    {
      "inputs": [
        {
          "internalType": "uint256",
          "name": "_id",
          "type": "uint256"
        }
      ],
      "name": "approveTransfer",
      "outputs": [],
      "stateMutability": "nonpayable",
      "type": "function"
    }
  ],
  "bytecode": "0x60806040523480156200001157600080fd5b50604051620011fc380380620011fc8339818101604052620000379190810190620001ef565b81600090805190602001906200004f9291906200005f565b5080600181905550505062000312565b828054828255906000526020600020908101928215620000db579160200282015b82811115620000da5782518260006101000a81548173ffffffffffffffffffffffffffffffffffffffff021916908373ffffffffffffffffffffffffffffffffffffffff1602179055509160200191906001019062000080565b5b509050620000ea9190620000ee565b5090565b6200013191905b808211156200012d57600081816101000a81549073ffffffffffffffffffffffffffffffffffffffff021916905550600101620000f5565b5090565b90565b6000815190506200014581620002de565b92915050565b600082601f8301126200015d57600080fd5b8151620001746200016e8262000277565b62000249565b915081818352602084019350602081019050838560208402820111156200019a57600080fd5b60005b83811015620001ce5781620001b3888262000134565b8452602084019350602083019250506001810190506200019d565b5050505092915050565b600081519050620001e981620002f8565b92915050565b600080604083850312156200020357600080fd5b600083015167ffffffffffffffff8111156200021e57600080fd5b6200022c858286016200014b565b92505060206200023f85828601620001d8565b9150509250929050565b6000604051905081810181811067ffffffffffffffff821117156200026d57600080fd5b8060405250919050565b600067ffffffffffffffff8211156200028f57600080fd5b602082029050602081019050919050565b6000620002ad82620002b4565b9050919050565b600073ffffffffffffffffffffffffffffffffffffffff82169050919050565b6000819050919050565b620002e981620002a0565b8114620002f557600080fd5b50565b6200030381620002d4565b81146200030f57600080fd5b50565b610eda80620003226000396000f3fe6080604052600436106100745760003560e01c80636cb3e8ef1161004e5780636cb3e8ef146100ff578063cacca4a01461012a578063d3650fb814610153578063ffabc673146101905761007b565b80631703a018146100805780632f65142c146100ab5780634c12fa47146100d65761007b565b3661007b57005b600080fd5b34801561008c57600080fd5b506100956101cd565b6040516100a29190610d67565b60405180910390f35b3480156100b757600080fd5b506100c06101d3565b6040516100cd9190610cca565b60405180910390f35b3480156100e257600080fd5b506100fd60048036036100f891908101906109d4565b6102c1565b005b34801561010b57600080fd5b5061011461049b565b6040516101219190610ca8565b60405180910390f35b34801561013657600080fd5b50610151600480360361014c91908101906109ab565b610529565b005b34801561015f57600080fd5b5061017a600480360361017591908101906109ab565b6108c5565b6040516101879190610c8d565b60405180910390f35b34801561019c57600080fd5b506101b760048036036101b2919081019061096f565b610901565b6040516101c49190610cec565b60405180910390f35b60015481565b60606002805480602002602001604051908101604052809291908181526020016000905b828210156102b857838290600052602060002090600502016040518060a001604052908160008201548152602001600182015481526020016002820160009054906101000a900473ffffffffffffffffffffffffffffffffffffffff1673ffffffffffffffffffffffffffffffffffffffff1673ffffffffffffffffffffffffffffffffffffffff168152602001600382015481526020016004820160009054906101000a900460ff161515151581525050815260200190600101906101f7565b50505050905090565b600080905060008090505b600080549050811015610356573373ffffffffffffffffffffffffffffffffffffffff16600082815481106102fd57fe5b9060005260206000200160009054906101000a900473ffffffffffffffffffffffffffffffffffffffff1673ffffffffffffffffffffffffffffffffffffffff16141561034957600191505b80806001019150506102cc565b50600115158115151461039e576040517f08c379a000000000000000000000000000000000000000000000000000000000815260040161039590610d27565b60405180910390fd5b60026040518060a0016040528060028054905081526020018581526020018473ffffffffffffffffffffffffffffffffffffffff16815260200160008152602001600015158152509080600181540180825580915050600190039060005260206000209060050201600090919091909150600082015181600001556020820151816001015560408201518160020160006101000a81548173ffffffffffffffffffffffffffffffffffffffff021916908373ffffffffffffffffffffffffffffffffffffffff1602179055506060820151816003015560808201518160040160006101000a81548160ff0219169083151502179055505050505050565b6060600080548060200260200160405190810160405280929190818152602001828054801561051f57602002820191906000526020600020905b8160009054906101000a900473ffffffffffffffffffffffffffffffffffffffff1673ffffffffffffffffffffffffffffffffffffffff16815260200190600101908083116104d5575b5050505050905090565b600080905060008090505b6000805490508110156105be573373ffffffffffffffffffffffffffffffffffffffff166000828154811061056557fe5b9060005260206000200160009054906101000a900473ffffffffffffffffffffffffffffffffffffffff1673ffffffffffffffffffffffffffffffffffffffff1614156105b157600191505b8080600101915050610534565b506001151581151514610606576040517f08c379a00000000000000000000000000000000000000000000000000000000081526004016105fd90610d27565b60405180910390fd5b600015156002838154811061061757fe5b906000526020600020906005020160040160009054906101000a900460ff16151514610678576040517f08c379a000000000000000000000000000000000000000000000000000000000815260040161066f90610d07565b60405180910390fd5b60001515600360003373ffffffffffffffffffffffffffffffffffffffff1673ffffffffffffffffffffffffffffffffffffffff168152602001908152602001600020600084815260200190815260200160002060009054906101000a900460ff1615151461071c576040517f08c379a000000000000000000000000000000000000000000000000000000000815260040161071390610d47565b60405180910390fd5b6001600360003373ffffffffffffffffffffffffffffffffffffffff1673ffffffffffffffffffffffffffffffffffffffff168152602001908152602001600020600084815260200190815260200160002060006101000a81548160ff0219169083151502179055506002828154811061079257fe5b906000526020600020906005020160030160008154809291906001019190505550600154600283815481106107c357fe5b906000526020600020906005020160030154106108c1576001600283815481106107e957fe5b906000526020600020906005020160040160006101000a81548160ff02191690831515021790555060006002838154811061082057fe5b906000526020600020906005020160020160009054906101000a900473ffffffffffffffffffffffffffffffffffffffff16905060006002848154811061086357fe5b90600052602060002090600502016001015490508173ffffffffffffffffffffffffffffffffffffffff166108fc829081150290604051600060405180830381858888f193505050501580156108bd573d6000803e3d6000fd5b5050505b5050565b600081815481106108d257fe5b906000526020600020016000915054906101000a900473ffffffffffffffffffffffffffffffffffffffff1681565b60036020528160005260406000206020528060005260406000206000915091509054906101000a900460ff1681565b60008135905061093f81610e5f565b92915050565b60008135905061095481610e76565b92915050565b60008135905061096981610e8d565b92915050565b6000806040838503121561098257600080fd5b600061099085828601610930565b92505060206109a18582860161095a565b9150509250929050565b6000602082840312156109bd57600080fd5b60006109cb8482850161095a565b91505092915050565b600080604083850312156109e757600080fd5b60006109f58582860161095a565b9250506020610a0685828601610945565b9150509250929050565b6000610a1c8383610a4f565b60208301905092915050565b6000610a348383610c07565b60a08301905092915050565b610a4981610e17565b82525050565b610a5881610e05565b82525050565b610a6781610e05565b82525050565b6000610a7882610da2565b610a828185610dd2565b9350610a8d83610d82565b8060005b83811015610abe578151610aa58882610a10565b9750610ab083610db8565b925050600181019050610a91565b5085935050505092915050565b6000610ad682610dad565b610ae08185610de3565b9350610aeb83610d92565b8060005b83811015610b1c578151610b038882610a28565b9750610b0e83610dc5565b925050600181019050610aef565b5085935050505092915050565b610b3281610e29565b82525050565b610b4181610e29565b82525050565b6000610b54601e83610df4565b91507f7472616e736665722068617320616c7265616479206265656e2073656e7400006000830152602082019050919050565b6000610b94601583610df4565b91507f6f6e6c7920617070726f76657220616c6c6f77656400000000000000000000006000830152602082019050919050565b6000610bd4601d83610df4565b91507f63616e6e6f7420617070726f7665207472616e736665722074776963650000006000830152602082019050919050565b60a082016000820151610c1d6000850182610c6f565b506020820151610c306020850182610c6f565b506040820151610c436040850182610a40565b506060820151610c566060850182610c6f565b506080820151610c696080850182610b29565b50505050565b610c7881610e55565b82525050565b610c8781610e55565b82525050565b6000602082019050610ca26000830184610a5e565b92915050565b60006020820190508181036000830152610cc28184610a6d565b905092915050565b60006020820190508181036000830152610ce48184610acb565b905092915050565b6000602082019050610d016000830184610b38565b92915050565b60006020820190508181036000830152610d2081610b47565b9050919050565b60006020820190508181036000830152610d4081610b87565b9050919050565b60006020820190508181036000830152610d6081610bc7565b9050919050565b6000602082019050610d7c6000830184610c7e565b92915050565b6000819050602082019050919050565b6000819050602082019050919050565b600081519050919050565b600081519050919050565b6000602082019050919050565b6000602082019050919050565b600082825260208201905092915050565b600082825260208201905092915050565b600082825260208201905092915050565b6000610e1082610e35565b9050919050565b6000610e2282610e35565b9050919050565b60008115159050919050565b600073ffffffffffffffffffffffffffffffffffffffff82169050919050565b6000819050919050565b610e6881610e05565b8114610e7357600080fd5b50565b610e7f81610e17565b8114610e8a57600080fd5b50565b610e9681610e55565b8114610ea157600080fd5b5056fea2646970667358221220cf423d6d444179fca430e96783b2d82a905c9bd60cf29265dc92d19d04a4b0cb64736f6c63430006000033",
  "source": "// SPDX-License-Identifier: MIT\r\npragma solidity 0.6.0;\r\npragma experimental ABIEncoderV2;\r\n\r\n\r\ncontract Wallet {\r\n  \r\n\taddress[] public approvers;\r\n\tuint public quorum;\r\n\r\n\t// Data Structure for the transfer\r\n\tstruct Transfer {\r\n\t\tuint id;\r\n\t\tuint amount;\r\n\t\taddress payable to;\r\n\t\tuint approvals; // Number of approvals \r\n\t\tbool sent; // Did we send transfer\r\n\t}\r\n\r\n\t// Create arrary to store Transfer data structure\r\n\t//Trasnsfer[] public transfers;\r\n    Transfer[] transfers;\r\n\r\n\r\n\t// Create mapping to track who has approved what Transfer\r\n\t// Tracks if the selected address has approved the selected Transfer\r\n\tmapping(address => mapping(uint => bool)) public approvals;\r\n\r\n\r\n\tconstructor(address[] memory _approvers, uint _quorum) public{\r\n\r\n\t\t// Initialize variables\r\n\t\tapprovers = _approvers;\r\n\t\tquorum = _quorum;\r\n\t}\r\n\r\n\r\n\t// Get a list of all the approvers\r\n\tfunction getApprovers() external view returns(address[] memory){\r\n\r\n\t\treturn approvers;\r\n\t}\r\n\r\n\t// Get a list of all the Transfers in the mapping object\r\n\t// Transfer[]: To use this we must add 'pragma experimental ABIEncoderV2'\r\n\tfunction getTransfers() external view returns(Transfer[] memory){\r\n\r\n\t\treturn transfers;\r\n\t}\r\n\r\n\t// Create a new Transfer data structure and story in an array\r\n\tfunction createTransfer(uint _amount, address payable _to) external onlyApprover() {\r\n\r\n\t\t// Populate array with next Transfer data structure\r\n\t\ttransfers.push(\r\n\t\t\tTransfer(\r\n\t\t\t\ttransfers.length,\r\n\t\t\t\t_amount,\r\n\t\t\t\t_to,\r\n\t\t\t\t0,\r\n\t\t\t\tfalse\r\n\t\t\t)\r\n\t\t);\r\n\t}\r\n\r\n\t// Populate approvals array with the address that called this function\r\n\t// If we have enough approavals then send transfer if not already sent\r\n\t// If function must be called by each of the address that are required\r\n\t// for the multisig approval\r\n\tfunction approveTransfer(uint _id) external onlyApprover() {\r\n\r\n\t\t// Check to see if the Transfer has already been approved and sent\r\n\t\trequire(transfers[_id].sent == false, 'transfer has already been sent');\r\n\r\n\t\t// Check to see if this address has not already approved this transfer\r\n\t\trequire(approvals[msg.sender][_id] == false, 'cannot approve transfer twice');\r\n\r\n\t\t// Set the approavl to true so they cannot set it again\r\n\t\tapprovals[msg.sender][_id] = true;\r\n\r\n\t\t// Increment the number of approvals for this Transfer data structure\r\n\t\ttransfers[_id].approvals++;\r\n\r\n\t\t// Validate we have enough approvals to perform transfer\r\n\t\t// If we reach quorum then send transfer\r\n\t\tif(transfers[_id].approvals >= quorum){\r\n\r\n\t\t\t// Setup variables for built-in transfer\r\n\t\t\ttransfers[_id].sent = true;\r\n\t\t\taddress payable to = transfers[_id].to;\r\n\t\t\tuint amount = transfers[_id].amount;\r\n\r\n\t\t\t// Send transfer\r\n\t\t\t// transfer: built-in solidity method available to all address payable variables\r\n\t\t\t// Use the new call function \r\n\t\t\tto.transfer(amount);\r\n\t\t}\r\n\t}\r\n\r\n\t// Send some ether to the smart contract.\r\n\t// You don't have to call a specific function.\r\n\t// Just send ether from an address to the address of the Smart Contract.\r\n\t// Old Way: //function sendEther() external payable{}\r\n\treceive() external payable{}\r\n\t\r\n\t// Only allow approvers to execute a function\r\n    modifier onlyApprover(){\r\n\r\n        bool allowed = false;\r\n\r\n        // Iterate through the approvers array and see if the address calling this function is in that array\r\n        for(uint i = 0; i < approvers.length; i++){\r\n\r\n            if (approvers[i] == msg.sender){\r\n\r\n                allowed = true;\r\n                //break; Can optimize code and add a break to exit out of loop\r\n            }\r\n        }\r\n\r\n        require(allowed == true, 'only approver allowed');\r\n        _;\r\n    }\r\n\r\n}\t",
  "sourcePath": "/mnt/c/CryptoLabCo/Projects/EatTheBlocks/wallet/contracts/Wallet.sol",
  "compiler": {
    "name": "solc",
    "version": "0.6.0+commit.26b70077.Emscripten.clang"
  },
  "schemaVersion": "3.4.6",
  "updatedAt": "2022-05-14T00:20:43.629Z",
  "networkType": "ethereum",
  "devdoc": {
    "methods": {}
  },
  "userdoc": {
    "methods": {}
  }
}